:1000000000000320D1010000D50900008D09000087
:100010008D0900008D0900008D0900008D09000088
:100020008D0900008D0900008D090000D509000030
:10003000D50900008D090000591E00005D1F000059
:10004000D5090000D5090000D5090000D509000038
:10005000D5090000D5090000D5090000D509000028
:10006000D5090000D5090000D5090000D509000018
:10007000D5090000D5090000D5090000D509000008
:10008000D5090000D5090000D5090000D5090000F8
:10009000D5090000D5090000D5090000D5090000E8
:1000A000D5090000D5090000D5090000D5090000D8
:1000B000D5090000D5090000D5090000A50B0000F6
:1000C000D5090000D5090000D5090000D5090000B8
:1000D000D5090000D5090000D5090000D5090000A8
:1000E000D5090000D5090000D5090000D509000098
:1000F000D5090000D5090000D5090000D509000088
:10010000D5090000D5090000D5090000D509000077
:10011000D5090000A9110000D5090000D50900008B
:10012000D5090000D5090000D5090000D509000057
:10013000D5090000D5090000D5090000D509000047
:10014000D5090000D5090000D5090000D509000037
:10015000D5090000D5090000D5090000D509000027
:10016000D5090000D5090000D5090000D509000017
:10017000D5090000D5090000D5090000D509000007
:10018000D5090000D5090000D5090000D5090000F7
:10019000D5090000D5090000D5090000D5090000E7
:1001A000D5090000D5090000D5090000D5090000D7
:1001B000D5090000D5090000D5090000D5090000C7
:1001C000D5090000D5090000D5090000D5090000B7
:1001D0005C4B4CF2205210B51A804DF628121A8052
:1001E00000BF00BF00F0FAFB574B4FF030621A60BF
:1001F000564A9A60564ADA60564B4FF470021A60BB
:10020000554B564A1A60564B1A78110703D51A787F
:1002100042F008021A70534B5349AA221A70534AEB
:10022000534B8B4204D252F8040F43F8040BF8E707
:10023000504B514900228B4202D243F8042BFAE77B
:100240004E494F4A002352F8230041F8230001335E
:10025000742BF8D14B4B4C4A802103F8011B93427D
:10026000FBD14A4B454A1A60494B8A221A70A3F5C2
:10027000805324225A70A0221A709A799207FCD5D2
:100280009A79D406FCD4434A937903F00C03082BE3
:10029000FAD1414B60221A7002331A78802AFCD1BD
:1002A0003C4B01221A715D225A719A799006FCD555
:1002B0009979384A4906FBD5384B394919600021EC
:1002C000596020231370937903F00C030C2BFAD19F
:1002D000344B354A1A60354A354C136813F4807331
:1002E00003D123604FF4A8531360324B324A1A6093
:1002F00000225A60072243F8042C304AC3F80C2D20
:1003000062B600F07BFD2368DA0705D52C4800F0C3
:100310000BFD2C4B2C4A1A602C4B1B785B0609D525
:10032000284C294B22689A4204D1254800F0FCFC55
:100330000023236001F0B0FF00F056FB01F02AFE1D
:10034000FEE700BF0E20054030800440823F0400DD
:100350000100002B88ED00E0002008E0030000858C
:1003600002D0074000E007403410FF1F882E000035
:100370003007FF1F3410FF1F5C12FF1F0002FF1F1A
:100380000000000000E400E064E400E008ED00E0AC
:10039000005006400040064001E007404480044011
:1003A0000000060204800440C010070010D0034083
:1003B00014D0034014E000E01FBF02000000202022
:1003C000310000001CE00340A5C3945A00F0074030
:1003D000FFFFFFFFFFFFFFFFFFFFFFFFFFFFFFFF2D
:1003E000FFFFFFFFFFFFFFFFFFFFFFFFFFFFFFFF1D
:1003F000FFFFFFFFFFFFFFFFFFFFFFFFFFFFFFFF0D
:10040000FFFFFFFFFFFFFFFFFFFFFFFFDEF9FFFF23
:1004100010B5054C237833B9044B13B10448AFF33E
:1004200000800123237010BD3410FF1F0000000066
:100430008C2E0000084B10B51BB108490848AFF3DB
:1004400000800848036803B910BD074B002BFBD0A0
:10045000BDE81040184700BF000000003810FF1F23
:100460008C2E00003410FF1F00000000704700BFFA
:1004700008B50D20012100F069FC40F21B60BDE8C9
:10048000084000F007BB00BF2DE9F04F3B4B3C4F4D
:100490001C6887B004F5F04800F0FAF8834600289D
:1004A0003AD02318984524D9364E4FF0010A3368C4
:1004B0000593DDF81490002507E033680493049B4E
:1004C000BA68C9EB0303934218D2C5EB0B0160195C
:1004D00000F0ECF805445D45EFD32C4414F8013CE2
:1004E000A3B100F0D5F88346B8B104EB0B039845EF
:1004F000DDD84FF0FF3007B0BDE8F08F204B2C4423
:1005000083F80CA014F8013C002BEAD11B4B1868AF
:10051000201A07B0BDE8F08F1A4E1B4D2B68DB0781
:1005200017D5DFF8689033680293D9F80020029B52
:10053000144816499B1AFA2BAED903680393039B00
:100540000B60134B1B689A0613D5124A20231360C5
:10055000A2E7284600F060FA0028E2D03368019351
:10056000DFF82890019BC9F80030284600F05AFABD
:10057000D9E7094A202313608EE700BF5010FF1F00
:100580003C07FF1F0811FF1F5810FF1F5410FF1FCB
:1005900090F00F4088F00F4084F00F4008B5084CF1
:1005A000084E094D03E02B60192000F0D5FB2368AD
:1005B00013F0200F4FF02003F5D120233360F3E731
:1005C00090F00F4084F00F4088F00F4008B5FFF71F
:1005D0005BFFB0F5C84F0FD1084B1B6803F5C74050
:1005E0007F30013B002213F8011F83420A44FAD1F5
:1005F000034B9A4200D108BDFFF7D0FF5010FF1FF8
:1006000054A1240008B54FF4F04001F0CBFC014B9D
:10061000186008BD5010FF1F38B50F4D286878B11D
:1006200043880288C118013393420C7A02D2438076
:10063000204638BD00F0B8FC002320462B6038BDB2
:10064000064B1B782BB1032000F0D4FC2860002857
:10065000E6D14FF0FF3038BD6810FF1FEC11FF1FCF
:1006600010B5094C206818B143881844007A10BDB1
:10067000064B1B782BB1032000F0BCFC2060002847
:10068000F2D14FF0FF3010BD6810FF1FEC11FF1FBB
:10069000044B054A1B6890881BB11A885B88D31AE3
:1006A000184470476810FF1F5012FF1F2DE9F84FC4
:1006B0000E46002942D0DFF890A09AF8003003F0EF
:1006C000FF091BB34FF000091E4F8046CB463C6824
:1006D00024B325886388ED1AB54228BF354604F156
:1006E000080119442A46404601F05EFC63882288CE
:1006F0002B449BB29A42A944A6EB0506A84463800A
:1007000016D91EB19AF80030002BE0D14846BDE85A
:10071000F88F0588002DDDD100F046FC032000F0A5
:1007200069FC044638600028F3D14846BDE8F88FDC
:10073000204600F039FCC7F800B0E2E70846BDE803
:10074000F88F00BF6810FF1FEC11FF1F0B4B1B78C9
:100750009BB110B50A4C206848B100F025FC00237D
:100760000320236000F046FC30B100F01DFC0320A4
:1007700000F040FC0028F8D110BD7047EC11FF1FBD
:100780006810FF1F2DE9F04FDFF8F89083B00122C9
:1007900089F80020019169B3DFF8EC80354F019EA4
:1007A0008346D8F80000B0B3334D4488C4F140010B
:1007B000B14228BF314604EB010E00221FFA8EFE23
:1007C0002A70761AA0F802E000F1080251B1013C4B
:1007D000224459441BF8014B02F8014F8B45F9D1D3
:1007E000B0F802E0BEF13F0F0BD8244A052111708A
:1007F000002ED6D10198002389F8003003B0BDE85F
:10080000F08F402202800146042000F08BFC002281
:10081000C8F80020E9E73A7822B3194C164D4FF09A
:10082000010A07E0013C16D02A78A2B9FFF71EFEA4
:100830003A78BAB1042000F0FBFB0728F2D889F817
:1008400000A000F091FBC8F800000028ADD10D4BCE
:10085000013C1870E8D101234FF0FF302B7003B03A
:10086000BDE8F08F00234FF0FF3089F8003003B06F
:10087000BDE8F08FEC11FF1F6410FF1F5C10FF1F1D
:10088000214801005D10FF1F6010FF1F00B583B0FD
:1008900002AB012103F8010D1846FFF773FF03B007
:1008A0005DF804FB38B50E4D0E4C2868012323700B
:1008B00028B1408800232370C0F1400038BD0A4BA6
:1008C0001B7813B90020207038BD042000F0B0FB65
:1008D0000728F7D800F048FB28600028E9D1F1E7A5
:1008E0006010FF1F5D10FF1FEC11FF1FF8B5114BCB
:1008F0001B788BB1104E114D346801272F7064B1F5
:100900000F4A63880027177021462380042000F0D7
:1009100009FC376000232B70F8BD00F025FB084B65
:1009200028B1014604201C7000F0FCFBF2E71F70A8
:10093000F0E700BFEC11FF1F6010FF1F5D10FF1FED
:100940005C10FF1F38B50E4B1B7873B90D4C216836
:1009500061B103F0FF054B880B80042000F0E2FB3F
:10096000256038BD084B01221A7038BD00F0FCFA32
:100970000028F7D00146BDE83840042000F0D2BB83
:100980005D10FF1F6010FF1F5C10FF1F08B5104CAB
:1009900008E0236859050DD423681A050FD423688D
:1009A000DB0411D423685803F3D500F0FDFB236862
:1009B0005905F1D500F0F6F823681A05EFD500F0D7
:1009C00009F82368DB04EDD500F004F8EAE700BF7E
:1009D0003480044008B5FFF7D9FF00BF014B102257
:1009E0001A80704700200540704700BF094908B5CC
:1009F0000B6830B16A461844A2F50052904202D208
:100A00000860184608BD01F041FC0C2303604FF05C
:100A1000FF3008BD3007FF1F0078B0FA80F04009B2
:100A2000704700BF01230370704700BF084A137866
:100A3000802B01D0002070470649074B074808600B
:100A4000002119701378802BFCD00120704700BF63
:100A500003E007404480044001E0074000002822F2
:100A6000094A1378012B01D00020704703F180431D
:100A700003F5FC23602119701378802BFCD1034B04
:100A8000034A1A600120704703E007404480044095
:100A900000000602324A33491368F0B543F480631C
:100AA00013600A78304F314E314D324C32490023B9
:100AB000152A3B7033702B7023700B7045D01B2AA6
:100AC0003ED082B32D4B1B78052B34D01A2B41D04E
:100AD000012B1BD01F281FD8002002460125284BC0
:100AE000284C1A7028495D7004224FF0020E8827A6
:100AF0003C26402598729A704FF0004083F813E02E
:100B00005A751F74DE7025700860F0BD1F4B4FF4DE
:100B100051721F281A60DFD9C0F34432C0F3471561
:100B200000F01F00DBE71A4B40F213321A60134B40
:100B30001B78052BCAD1174B4FF451721A60C9E7C5
:100B4000154B40F213321A60BCE7144B40F21332DB
:100B50001A60B7E7124B4FF451721A60BAE700BF40
:100B600034800440B810FF1F7410FF1F7510FF1F62
:100B70000411FF1FFD10FF1FFC10FF1F3407FF1F94
:100B800000A006401FE400E000E100E044A00440B3
:100B900040A004401CC004403C90044018C00440E5
:100BA00038900440F0B4384B1A7912F0300F2CD042
:100BB00072B6997D01F0FF0200293DD062B6334F35
:100BC000334938780D78334E1C46C0B2EDB2431C21
:100BD000402BE17928BF0023AB4202F1FF32C9B2BA
:100BE0001CBFF154184612F0FF02F0D12A4B1B68CB
:100BF000C2B23A704BB1A84236BFC5F14005401BA6
:100C000040192728C4BF01221A701F49CA78D2B2DE
:100C1000150616D452060DD51B4B1B795B0609D55C
:100C20001E4B1F491B6800220A7003B11A70164B35
:100C30003C22DA70F0BC70474022D9795A7462B60F
:100C4000E3E70B791C06E5D5164B174E1C78337875
:100C5000E4B2DBB29C420ED0144D01E0A3420AD0B4
:100C60000133402B28BF00230879E85CC0B2C8716B
:100C7000087D0728F2D9DBB2034933700B791806D7
:100C800044BF7C23CB70C5E700A006407410FF1F53
:100C90007510FF1FBC10FF1F7010FF1F0011FF1FFA
:100CA000FC10FF1F0411FF1FFD10FF1F7810FF1F16
:100CB0001C4A02EBC00301295B6811D004291BD038
:100CC00052F83000002280F8802229B1022920D079
:100CD000032922D01A6070474FF480721A6070475F
:100CE00052F830004FF4A27280F880121A601A682D
:100CF00022F020021A60704752F830104FF4A272AE
:100D0000012081F880021A601A6842F020021A60FD
:100D1000704740F203121A6070474FF481721A60F4
:100D2000704700BFEC2B000030B4054B054D064C5E
:100D3000002210211A602A602060196030BC7047C0
:100D400014D0034004D0034000D003403F2801D812
:100D5000FFF7AEBF704700BF2DE9F843054672B6F6
:100D6000224F234B234A1B683C68126862B652012B
:100D700002D5322B88BF0134B5B3C3F52F3303F24C
:100D80001F331D4EDFF86890DFF868809B084FF432
:100D90007A72A6FB031302FB04F404EB930472B60D
:100DA000D9F800103A68D8F800E062B6C1F52F33E0
:100DB00003F21F339B08A6FB03031EF0806FC4EBF6
:100DC00093034FF47A7002D0322988BF013200FBBE
:100DD0000233B3F57A7F04D3013D05D004F57A746C
:100DE000DDE7FFF743FBDAE7BDE8F8830811FF1FF3
:100DF00018E000E004ED00E0176CC116F8B54E4BAA
:100E00004E48DFF85CC14E4C4E49DFF858E14E4E7B
:100E10004E4D4F4F4FF000621A604FF080521A60F3
:100E20004FF000521A604FF080421A604FF00042BB
:100E30001A600022026028234EF6FF70CCF80000F2
:100E4000CEF8003023600EF5012E0B6033602B606E
:100E500006F500263B6005F50025A36207F500278F
:100E60008B6204F5012401F5012106F6E87605F60A
:100E7000E87507F57F6710310EF1100E20343360EE
:100E80002B60CEF800303B600B602360314CBB61BF
:100E90008B6109212160A7F5002704F58054203FCC
:100EA00008343A602060BB60E36047F8041C04F536
:100EB000FD2407F5FE27043704F2FC742260386035
:100EC000A360FB6044F8041C083404F6FC74C7F803
:100ED000FC2F2060A4F5E124A4F2DC7433602B60C5
:100EE000C7F8F81F21681C4841F4007121600168AF
:100EF0001A4C0EF57F4E0EF1E80E07F5883706F511
:100F0000803605F5803541F000710160CEF8002093
:100F100047F6FF710822396033602B60226001F0D0
:100F2000DDF81920FFF718FF00F0A6FE40F21310BD
:100F3000BDE8F840FFF710BF04E100E00480034083
:100F4000148003401C800340248003402C80034015
:100F500034800340008003400480044000900C4033
:100F6000088003400C80034072B60D480268B2FA54
:100F700082F30B2B10DC4FF00041D94022EA010232
:100F8000026062B6074803EBC303DB00C21800210E
:100F9000C15010465160704762B60020704700BFD4
:100FA0003807FF1FD003FF1F0D4B0E4AC31AA2FBC9
:100FB00003231B090B2B0CD80B4A127852B972B6BB
:100FC0000A484FF00041026821FA03F31A43026015
:100FD00062B67047064A1278002AF0D000F03EB898
:100FE000D003FF1F398EE338E111FF1F3807FF1FC1
:100FF000EC11FF1F431E032B14D872B60A4951F897
:10100000230068B170B4094C058834F81320466891
:1010100041F82360521B24F8132062B670BC70475D
:1010200062B67047002070476411FF1F5012FF1F07
:10103000013803280BD872B6074B53F8203043B160
:1010400000205B680130002BFBD162B670470020A6
:1010500070471846F9E700BFB811FF1F30B472B6E9
:101060002B4A13781D0706D52A4B196A002936D05A
:10107000996A002941D053781C0706D5254B196C75
:1010800000293ED0996C002939D09378190705D5ED
:10109000204B196E002936D0996E89B1D3781B0781
:1010A00007D51C4BD3F880207AB3D3F888201121C0
:1010B0003AB162B6184B00221A7030BCFFF774BF09
:1010C0000D21154C154D227843F8315003EBC10327
:1010D0000830013A5860227062B630BC7047042272
:1010E0000D4C0F4D217843F8325003EBC20308300A
:1010F0004A1E5860227062B6EFE70521E1E7092138
:10110000DFE70822ECE70C22EAE71022E8E700BF5D
:10111000142E00000000FF1FE111FF1FC800400057
:1011200088004000431E032B1DD81B4A400140F09D
:10113000100030B4104472B6184CE25C032A1BD87D
:10114000DFE802F00212151703220D88E25410F0B6
:10115000080F14BFC823882343EA054308310360FE
:10116000416062B630BC704708300222EDE70522CC
:10117000EBE708300422E8E7094A52F8230038B1C7
:10118000084A52F82300416042F8231062B6E9E7AA
:1011900042F82310034AF7E70000FF1FF011FF1F7A
:1011A000B811FF1FC811FF1F2DE9F04FDFF80CB376
:1011B000DFF80CA387B044E0AB4F4FEA930807EB8E
:1011C000C809013ED9F8042003F00803F6B2A2F1E1
:1011D000080003F0FF04002B40F0028157F838307C
:1011E0001B0C99B222F8081C002B00F0F0809F4BDA
:1011F00022F8064C42F8044C53F82620002A00F04E
:10120000C5829B4D55F8263058609A4C45F826000B
:1012100034F81630194424F81610FFF7A5FE0028FC
:1012200000F0AD82944A954B19F0080F00F10800C8
:1012300018BF1346C9F8040047F8383008238BF864
:1012400000309BF80040E4B261071AD58C4B1B7844
:10125000A3B18C490A7802F0FF0322B1013BDBB253
:101260000B7003B900BE88490A7802F0FF032AB167
:10127000013BDBB20B70002B00F0578204238BF88C
:10128000003004F0080303F0FF02002B00F0CC80D4
:101290009AF80030DBB21E098ED19C08DFF8C891A5
:1012A00059F8342009EBC401C2F38302013A4968BA
:1012B0000C2A00F28880DFE802F07C7C8686868635
:1012C00086864786868607000868704D4A68704F94
:1012D000704E286081B240F28160674B6A604FF0C7
:1012E000010E0022814249F834303A60C9F81020DA
:1012F000C9F8182086F800E05B4C00F2E380B1F5F5
:10130000D06F80F04683B1F5817F00F0FC8200F25F
:101310008D82802900F07783822940F0FA82A988A3
:1013200001F07F01042900F2F4825B485B4C8900E4
:101330000844227062700278930740F1588484F860
:1013400000E04FF0020E42E3514F3A6832B3544B83
:10135000504E5449188834780D784028864645F018
:10136000020828BF4FF0400E002C84F001043470B6
:10137000CEEB00000CBF8824C82409EBC80680B25D
:1013800085F0010544EA0E447260188049F838403F
:1013900072440D70002800F045813A603B4B1A887A
:1013A000B2F5A06F0FD100219A7859703E4B1A7098
:1013B00009E0364A108842F22102904200F037815B
:1013C0002D4A49F83420394A0123137036E72A4A56
:1013D0002A4B19F0080F18BF134647F838302DE78D
:1013E000FFF7E2FD324A334952F82630002B00F075
:1013F000D18158688C5D42F8260003F10802C9F8D3
:101400000420032C05D8DFE804F02C022926022250
:101410008A551A8819F0080F0CBF8823C82343EA9D
:10142000024347F8383009E7E00700F181812106DF
:1014300000F1F281A20706D51F4A20491378022045
:10144000DBB213700870E30602D51C4B10221A7031
:1014500007B0BDE8F08F04228A55DAE705228A55E5
:10146000D7E703228A55D4E70000FF1F6411FF1F4E
:101470001011FF1F5012FF1FC800400088004000DD
:10148000EC11FF1F7511FF1F5C10FF1FD811FF1F0C
:101490000C11FF1F7411FF1FC0200740E411FF1F34
:1014A0002011FF1FE011FF1F9820074094200740E4
:1014B000B811FF1FF011FF1F882007408020074050
:1014C0009020074042F22100814200F02A8100F280
:1014D000D880B1F5086F00F07682B1F5106F40F05A
:1014E0001882226AB349A8780870120600F13A837C
:1014F000D9F82820B049130600F10C83D9F8302020
:10150000AD49150600F10183D9F83820AA4914061F
:1015100000F1F682D9F84020A749100600F14A836D
:10152000D9F84820A449120600F13F83D9F8502089
:10153000A149130600F13483D9F858209E491506B5
:1015400000F12983D9F860209B49140600F11E831D
:10155000D9F868209849100600F11383D9F8702053
:101560009549120600F10883D9F8782092491306AC
:1015700000F1FD82D9F880208F49150600F13183F2
:10158000D9F888208C49140600F12583D9F89020D9
:101590008949100600F11983D9F898208649120666
:1015A00000F10D838548864A864901908648874D1B
:1015B000874C049700230596029580460F461646F1
:1015C0001D460394306828B14468FFF7EDFC2046BF
:1015D000002CF9D100233360029B38681A4600239F
:1015E00042F8253028B14468FFF7DEFC2046002C85
:1015F000F9D100223A60019A98F800301146002291
:1016000041F8042B039A0191023B4FF0000122F8AC
:101610001510032B00F22B81DFE813F07001250178
:1016200070012501BEF1400F18BF0022B5E6694ADE
:101630000D784878157050708D78C8789570D07096
:1016400010680D79157186284D79897955719171D8
:1016500000F09B816049614E0A78307882F0010584
:10166000002842F002020D700CBF8821C82149F801
:10167000321009EBC20280F001000021307051608D
:101680009EE642F22120814240F0CB81544B554CE2
:101690005549A8781D682560CDF804E00870002041
:1016A00002908046844604464B490D7845F0020E70
:1016B00009EBCE030393019B002B039B5C600CBFE3
:1016C0008824C82444EA080385F0010449F83E3020
:1016D00032700C70DFF8E0E0404BDFF8FC8000284F
:1016E00040F01E81BCF1400F1BD144F0020C09EB0D
:1016F000CC03029CDFF8C0E05C60002A40F0268149
:10170000020442F088029DF804304EF83C20044464
:1017100033700D702346402803D10020334A3B60CC
:101720001080334A012313704DE6FFF70BF9A5E54E
:10173000214B2F4828491A614FF0020E80F800E033
:101740002C4F0A702C49196099602C4E2C4D2D4C51
:101750009A610D213970FF213170DFF8B8E02970EE
:101760002270294D294A8EF800109F27012406F87F
:10177000047C5D600470DA6007B0BDE8F08F244A35
:1017800047F8380013780133137057E543F8260003
:101790000E4D3AE58B5D032B00F2F08001A252F86A
:1017A00023F000BF3D1200003D1200006118000050
:1017B0005B180000EC11FF1F0000FF1FC811FF1F86
:1017C0006411FF1FB811FF1FF011FF1F1011FF1F41
:1017D0005012FF1F4412FF1FE011FF1F7411FF1F63
:1017E0000811FF1F4C12FF1F6C10FF1F2011FF1F5D
:1017F00094200740C0200740880040008820074010
:1018000080200740982007402411FF1F7811FF1FF8
:10181000E111FF1F8C200740C149C24B80220D20DF
:1018200008701A70A2077FF50EAE05E640F202328C
:10183000914240F0EE80A98801F07F01042968D828
:101840006A88002A65D1B648CDF804E089000844CA
:10185000017841F00201017021E701238B55EDE48D
:1018600000238B55EAE44FF0010388F8003001357E
:10187000042D06F1040607F1040708F101087FF4BE
:10188000A1AEA94CA94B2278A94D049F059E002129
:1018900029701A70130700F105816278A549DFF8F5
:1018A000A0820A7010074FF00001C9F83010C9F883
:1018B000381000F1E080A049A2780A700021C9F830
:1018C0005010C9F858101107DFF8748200F1018137
:1018D000E2789A499A4C0A7000211207C9F87010F0
:1018E000C9F8781000F1B08033780193002183F0BB
:1018F0000102C9F89010C9F89810D0E64FF0000323
:1019000088F80030B3E7A98801F07F01042940F28C
:101910008D80834A0F2313708A4A0123137052E586
:1019200040287FF6E2AE44F002040EEBC401029EB2
:101930004E60BAB19DF80410834A1970334640389E
:1019400088F8005040334EF83420E7E69DF8043024
:1019500033700204029B0D7042F0C80203444EF83B
:101960003C20D8E69DF804101970029B774A88F84D
:101970000050403840334EF83420CFE619F0080FBD
:101980000CBF022303238B5558E4714A0F211170B9
:1019900060E6704A5468002CBBD06888B5F804E053
:1019A00003E00C325468002CB3D013888342F8D182
:1019B00053887345F5D1000A03280CBF94F800E062
:1019C000B2F808E003E0644A644C12782270E888B8
:1019D000704580F03F8162490D784028844645F08B
:1019E000020E28BF4FF0400C04EB0C0309EBCE02B3
:1019F000029301235460CCEB00004FEA0C48002214
:101A00000193C8245EE6554C4FF0020E22706270BE
:101A1000DDE7B1F5A06F7FF47CAF012300220193D5
:101A20003DE642F221329142F7D072E76A88002AFD
:101A30007FF46FAF3A48CDF804E08900084401789C
:101A400021F0020101702AE6FFF78EFA002800F06B
:101A5000EF8008303D4AC4F88400C4F88020FFF7C6
:101A600083FA002800F0DE800830374AC9F88C007D
:101A7000C9F8882038E7FFF777FA002800F0C0801F
:101A80000830324AC8F84400C8F84020FFF76CFA22
:101A9000002800F0AF8008302B4AC9F84C00C9F884
:101AA000482008E7FFF760FA002800F0CD800830F2
:101AB000264AC9F82400C9F82020FFF755FA002863
:101AC00000F0BC800830204AC9F82C00C9F8282052
:101AD000E3E6FFF749FA002800F09E8008301B4A31
:101AE000C8F86400C8F86020FFF73EFA002800F04C
:101AF0008D800830144AC9F86C00C9F86820E7E600
:101B0000C86B0838FFF750FA04E5486B0838FFF750
:101B10004BFAF9E4C86A0838FFF746FAEEE400BF6A
:101B2000C020074080200740142E0000C42007403A
:101B3000E111FF1FC8200740CC200740D0200740FC
:101B40000000FF1F94200740C800400088004000AC
:101B50007511FF1F182E0000EC11FF1FE411FF1F6D
:101B6000E011FF1F606A0838FFF71EFAC0E4C86F73
:101B70000838FFF719FAFDE4486F0838FFF714FA40
:101B8000F2E4C86E0838FFF70FFAE7E4486E083849
:101B9000FFF70AFADCE4C86D0838FFF705FAD1E46C
:101BA000486D0838FFF700FAC6E4C86C0838FFF73C
:101BB000FBF9BBE4486C0838FFF7F6F9B0E4D1F85C
:101BC0009C000838FFF7F0F9ECE4D1F894000838ED
:101BD000FFF7EAF9E0E4D1F88C000838FFF7E4F900
:101BE000D4E4D1F884000838FFF7DEF9C8E44FF0F8
:101BF000020EECE62A78C9F8480001322A705AE64B
:101C00002A78C8F8400001322A703FE72A78C9F8DC
:101C1000680001322A705BE62A78C8F86000013259
:101C20002A7061E72A78C9F8880001322A705BE6D9
:101C30002A78C4F8800001322A7010E72A78C9F89F
:101C4000280001322A7028E62A78C9F820000132DB
:101C50002A7032E7BEF1400FF44628BF4FF0400C27
:101C600004EB0C0302930123CCEB0E004FEA0C486B
:101C70000022019318E500BF2DE9F04100F09EFA23
:101C8000314C324B3248DFF8E480324EDFF8E0C0AE
:101C9000314F324DDFF8DCE000221A605A609A6062
:101CA000DA601A615A619A61DA611A625A629A625A
:101CB000DA621A635A639A63DA631A645A649A643A
:101CC000DA641A655A659A65DA651A665A669A661A
:101CD000DA661A675A679A67DA67C3F8802021685C
:101CE000C3F8842041F480212160016841F04071F3
:101CF0000160032188F80010A020C3F307218CF8AD
:101D0000000004F528343170C3F3074014493870DB
:101D10001B0E2B70CC34FF238EF80030114D0CF8C5
:101D2000B83C11480B70012306F8083C227070265D
:101D30004FF40014102207F82C3C2E70046081F838
:101D4000F820BDE8F08100BF348004400000FF1F90
:101D500000D800409C200740B0200740B420074036
:101D60001020074035E400E004E100E04421074092
:101D7000402107408020074010B4EFF3108272B674
:101D8000437F33B9017F012908D0032910D00123F3
:101D9000437702B962B65DF8044B7047114C216875
:101DA000A1B1114943610B68836108605861EEE796
:101DB0000E4C216881B10E4943610B688361086054
:101DC00058610C4B4FF080511960E0E7064B4161C0
:101DD000816120601860DAE7054B41618161206014
:101DE0001860EEE70412FF1F0012FF1FF411FF1F1F
:101DF000F811FF1F04ED00E010B4047F4160022CD5
:101E0000C26003D05DF8044BFFF7B6BF83685DF88E
:101E1000044B184770B5EFF3108272B60C4C206873
:101E200080B10C4E00254369236073B19D6102B9F6
:101E300062B6457783689847EFF3108272B62068E0
:101E40000028F0D102B962B670BD3360EFE700BF81
:101E5000F411FF1FF811FF1FFFF7DCBF184A30B461
:101E60001468002C27D0036821688B420ED2CB1A4D
:101E700000218460C1602360E0601060022303756C
:101E800030BC704711688B42144608D3A2685B1AB5
:101E90000360002AF6D18260C460A060EEE7D268D9
:101EA000C2608460E060C568CB1A0222A86023602B
:101EB000027530BC70478460C4601060DEE700BF0C
:101EC000FC11FF1FF8B5224E34682CB32368002B99
:101ED0003AD1204F1D4604E03468ECB12368002B52
:101EE00032D1A36803B1DD602069336003682575D2
:101EF0001B68BB4221D1037F4560022BC46020D008
:101F0000FFF73AFF6368002BE6D023602046FFF717
:101F1000A5FF3468002CE1D1EFF3108372B60E4AAE
:101F200000211068116003B962B628B18468FFF718
:101F300095FF20460028F9D1F8BD22460021984798
:101F4000E0E783689847DDE7013B2360E4E700BFF3
:101F5000FC11FF1FF91D00000812FF1F024A136841
:101F600001331360FFF7AEBF0811FF1FFEF7EEBB92
:101F7000FEF776BBFEF750BBFEF78ABBFEF7B6BC9A
:101F8000FEF790BC08461146FEF7FCBB0846FEF77C
:101F90007DBC00BF08B5FEF76BFAFEF717FBFEF736
:101FA00065FAFAE700F0A0B9844641EA000313F0AD
:101FB00003036DD1403A41D351F8043B40F8043B50
:101FC00051F8043B40F8043B51F8043B40F8043B13
:101FD00051F8043B40F8043B51F8043B40F8043B03
:101FE00051F8043B40F8043B51F8043B40F8043BF3
:101FF00051F8043B40F8043B51F8043B40F8043BE3
:1020000051F8043B40F8043B51F8043B40F8043BD2
:1020100051F8043B40F8043B51F8043B40F8043BC2
:1020200051F8043B40F8043B51F8043B40F8043BB2
:1020300051F8043B40F8043B403ABDD2303211D352
:1020400051F8043B40F8043B51F8043B40F8043B92
:1020500051F8043B40F8043B51F8043B40F8043B82
:10206000103AEDD20C3205D351F8043B40F8043B52
:10207000043AF9D2043208D0D2071CBF11F8013B50
:1020800000F8013B01D30B8803806046704700BF16
:10209000082A13D38B078DD010F003038AD0C3F125
:1020A0000403D21ADB071CBF11F8013B00F8013B07
:1020B00080D331F8023B20F8023B7BE7043AD9D3C6
:1020C000013A11F8013B00F8013BF9D20B7803709B
:1020D0004B7843708B7883706046704730B42948E2
:1020E000294A2A4B2A4D6024E121047011701B7883
:1020F000284C082B30D00A2B2748284937D00C2BE6
:102100000CBF35225D2212232A60236002600B601F
:10211000234B24491B78244ABBB101230B60136075
:10212000224B23491B78234A012B26D9042B0FD994
:10213000082B1ED9102B94BF862387230B601360B6
:102140001D4B01221A7030BC70470B601360E7E72B
:1021500084230B601360F3E700F58E200F490830ED
:10216000212213232A60236002600B60D0E739220A
:10217000F7E785230B601360E2E780230B601360B1
:10218000DEE700BF00400740014007404C07FF1F4B
:1021900008B003400CB0034008B00B400CB00B403B
:1021A0000D12FF1F20B0034020B00B404D07FF1F52
:1021B00024B0034024B00B400C12FF1F10B584B0B4
:1021C00072B6FEF733FC184A184B19491160702299
:1021D00080211A701A46197013781B06FCD5154B0E
:1021E0001C68FEF73DFC62B6134B9C429CBF04EB9F
:1021F000840464002046114C01A90A2200F020F852
:1022000001A92046002311F8012B01333AB10A2B12
:1022100020F8022FF7D11623237004B010BD5B0005
:10222000DBB2237004B010BD040002400000024085
:10223000000007410C0002407F969800DC07FF1F5A
:10224000F0B44D1E2E46002400E00134B0FBF2F342
:1022500002FB1300092800F130078ABF3730F8B2BB
:10226000C0B206F8010F1846002BEED10A195370C0
:102270004CB1107815F8016F28700133E01A8342D1
:1022800002F80169F5DB0846F0BC7047014B18689D
:10229000704700BF200CFF1F70B50F4E0F4D761B0F
:1022A000B61018BF002405D0013455F8043B9847F8
:1022B000A642F9D10A4E0B4D761B00F0D9FDB6109F
:1022C00018BF002406D0013455F8043B9847A642B5
:1022D000F9D170BD70BD00BF7C2E00007C2E0000C7
:1022E000882E00007C2E0000024B0146186800F08A
:1022F00003B800BF200CFF1F2DE9F04F01F10B05C3
:10230000162D83B0064640F29F8035F0070500F198
:10231000BF80A94200F2BC8000F0A6FAB5F5FC7FB0
:10232000C0F09C826B0A00F0BA80042B00F283811B
:10233000A80900F1390E4FEA4E033830C44F07EBBD
:102340008303A3F108015C68A14207D1ACE0002A35
:1023500080F2AC80E468A14200F0A680636823F0BC
:1023600003035A1B0F2AF2DDB9493C6901F1080E3B
:10237000744500F0B381636823F003035A1B0F2AEE
:1023800000F39981002AC1F814E0C1F810E080F24E
:102390009E80B3F5007F80F06781DB0803F1010CBC
:1023A00001229B1002FA03F34A6851F83C80C4F8FA
:1023B000088001EBCC091A43A9F10803E3604A60E5
:1023C00041F83C40C8F80C40831001249C409442E2
:1023D00000F28A80144206D120F003006400144207
:1023E00000F10400FAD007EBC009CC468046DCF8C7
:1023F0000C108C4507D173E1002A80F28181C968F5
:102400008C4500F06D814B6823F003035A1B0F2AA3
:10241000F2DD0C46D1F80CC054F8088F4B1945F08A
:1024200001054D6042F00101C8F80CC03046CCF8FF
:1024300008807B613B61C3F80CE0C3F808E0596099
:102440009A5000F013FA1FE0102921D800F00CFA7E
:102450001025062302207E4F07EB8303A3F1080219
:102460005C68944200F045816368E168A56823F0E8
:102470000303234430465A68E96042F001028D604C
:102480005A6000F0F3F90834204603B0BDE8F08F3D
:1024900000240C232046336003B0BDE8F08F802376
:1024A0004FF0400E3F2049E770465DE72344E16866
:1024B0005A68A56842F00102E96030468D605A60B2
:1024C00000F0D4F90834204603B0BDE8F08F23446F
:1024D00030465A6842F001025A6000F0C7F90834E9
:1024E000204603B0BDE8F08FBC68636823F00308A2
:1024F000A84504D3C5EB08030F2B00F38C80554B84
:10250000DFF860911A68D9F8003001332A4404EBEF
:10251000080A00F0608102F580520F3222F47F62D7
:1025200022F00F0211463046019200F0A1F9B0F1FD
:10253000FF3F8346019A00F05881824500F2FC80FB
:10254000454B1968DA451144196000F05381D9F8F8
:102550000000DFF810E101301BBFCAEB0B0A514449
:10256000CEF800B019601BF0070100F01781C1F12F
:102570000800C1F58051834408315A44C2F30B026C
:10258000C2EB010949463046019300F071F9431C42
:10259000019B00F03F81CBEB00024A4442F0010274
:1025A0001968C7F808B04944BC42CBF80420196048
:1025B000DFF8A49016D0B8F10F0F40F2FD806268EA
:1025C000A8F10C0323F00703E01802F001024FF01A
:1025D000050E1A430F2B6260C0F804E0C0F808E053
:1025E00000F21C811D4BBC681A68914288BF1960BB
:1025F0001B4B1A689142626888BF196022F003027F
:102600009542A2EB050301D80F2B04DC304600F005
:102610002DF9002438E7621943F0010345F0010564
:1026200065603046BA60536000F020F908342046F7
:1026300003B0BDE8F08F142B71D9542B00F2A480A5
:10264000280B00F16F0E4FEA4E036E3076E600BFA6
:10265000240CFF1F1812FF1F1C12FF1F1412FF1F54
:102660001012FF1F3010FF1F5A0A042A5ED9142AC5
:1026700000F2B38002F15C0149005B3207EB810C90
:1026800057F82110DFF8DC81ACF1080C8C4500F024
:1026900088804A6822F00302934202D289688C45FE
:1026A000F7D1D1F80CC07A68C4F80CC0A160CCF89E
:1026B0000840CC6088E6631942F0010745F0010547
:1026C000656030464B610B61C3F80CE0C3F808E06D
:1026D0005F609A50083400F0C9F8D5E64A6873E69E
:1026E00008F1010818F0030F0CF1080C7FF47FAE1D
:1026F00030E0DC68A34208BF02303FF435AEB3E6F9
:102700000B440C465A68C96854F8085F42F001024D
:102710005A603046E9608D6000F0A8F8B4E603F135
:102720005C0E03F15B004FEA4E0307E69A0902F1E3
:10273000390149003832A1E7BC424A4B3FF400AFAF
:102740009C68626822F003025AE759F808399945F3
:1027500040F0828010F0030F00F1FF30F5D17B686C
:1027600023EA04037B6064009C423FF6BDAE002C6C
:102770003FF4BAAE1C4240467FF435AE64001C42C2
:1027800000F10400FAD02EE6B3F5AA7F18D8E80BC2
:1027900000F1780E4FEA4E037730CFE54FF48051C9
:1027A000EBE60121D8F80430921001FA02F21A4344
:1027B000C8F80420614677E70123CBF8043025E709
:1027C00040F25452934220D8A80C00F17D0E4FEAFB
:1027D0004E037C30B2E51032A4E6542A26D81A0BF8
:1027E00002F16F0149006E3248E7BC68626822F06E
:1027F000030205E7CAF30B0000287FF4A8AE4244A9
:10280000BB6842F001025A60ECE6FE234FF07F0EF7
:102810007E2093E501224FF00009C1E604F1080192
:10282000304600F0A9F8D9F80010DBE6B2F5AA7F2F
:1028300005D8DA0B02F17801490077321EE740F241
:1028400054518A4205D89A0C02F17D0149007C322C
:1028500014E7FE217E2211E77B6884E7E808431C29
:102860005B00F8E5240CFF1F704700BF704700BFF6
:1028700038B5074C0023054608462360FEF7B6F836
:10288000431C00D038BD2368002BFBD02B6038BD23
:102890005812FF1F024B13B1024800F005B87047F1
:1028A00000000000B5280000002301461A46184623
:1028B00000F04AB938B5074D074C2C1BA41005D0C1
:1028C000013C55F8043D9847002CF9D1BDE838404B
:1028D00000F0DABA0000000000000000F8B5234F55
:1028E0000C460646FFF7C0FFBB685D6825F0030590
:1028F000291B01F6EF7121F47F6121F00F01A1F591
:102900008054B4F5805F07DB00213046FFF7B0FF4D
:10291000BB682B44984204D03046FFF7A7FF002045
:10292000F8BD61423046FFF7A3FF01300DD0104BD8
:10293000BA6819682D1B45F001053046091B556022
:102940001960FFF793FF0120F8BD00213046FFF723
:102950008FFFBA68831A0F2BDEDD064C044924680A
:1029600043F00103001B53600860D5E7240CFF1FF0
:102970001C12FF1F3010FF1F002945D02DE9F04128
:102980000D468046FFF770FF55F8047C6A4927F032
:102990000103A5F10804E2188E685068B24220F0E5
:1029A000030062D0FE0750600BD455F8087CE41B8E
:1029B00001F1080EA56875453B446FD0E768EF60EC
:1029C000BD6015186D68ED0742D543F001026260E5
:1029D000E350B3F5007F18D2DB085A1C4D6851F85C
:1029E0003270A76001209B1000FA03F301EBC200D4
:1029F0001D430838E0604D6041F83240FC604046BD
:102A0000BDE8F041FFF732BF70475A0A042A53D895
:102A10009A0902F139077F0002F1380501EB8700BE
:102A200051F827204449083890424DD0516821F090
:102A300003018B4202D292689042F7D1D068E060E5
:102A4000A2608460D4604046BDE8F041FFF70EBF4D
:102A500095683A4FBD4203443FD0D068E86043F0E8
:102A6000010285606260E350B3E7FF07034407D4C7
:102A700055F8082CA41A1344A068E268C26090605C
:102A80002F4A126843F00100934260608C60B6D315
:102A90002C4B40461968FFF721FFB0E71118496831
:102AA000C90744D49168D268CA60034443F0010066
:102AB00091606060E350A2E7142A17D802F15C0726
:102AC0007F0002F15B05A9E7AA104B68012505FA12
:102AD00002F213434B600246B1E743F001024C613E
:102AE0000C61E560A5606260E35088E7542A06D86F
:102AF0001A0B02F16F077F0002F16E058EE7B2F547
:102B0000AA7F06D8DA0B02F178077F0002F1770579
:102B100084E740F25450824206D89A0C02F17D07B5
:102B20007F0002F17C0579E7FE277E2576E743F0FA
:102B300001026260E35062E7240CFF1F2C0CFF1FB0
:102B40002C10FF1F1812FF1F2DE9F047254C256898
:102B5000D5F848410646884692469946C4B360680F
:102B60001F2817DC431C76B104EB80050122C5F851
:102B700088A0D4F8881182401143022EC4F888112D
:102B8000C5F808911ED00230636044F82080002010
:102B9000BDE8F087144B03B34FF4C870FFF7A4FBF4
:102BA0000446D0B1D5F84831002780E88800C5F840
:102BB000484138460123C4F88871C4F88C71002E4E
:102BC000E1D0D1E7D4F88C110A43C4F88C21DAE7BC
:102BD00005F5A674C5F84841C1E74FF0FF30BDE8E0
:102BE000F08700BF6C2E0000E92200004008FE4381
:102BF00040A004404408FE4344A004400018FE43A3
:102C000000C004403000FE43309004403400FE43D6
:102C1000349004401C18FE431CC004401018FE43AE
:102C200010C004400818FE4308C004400C18FE43BE
:102C30000CC004400C10FE430CB004401010FE43C6
:102C400010B004401810FE4318B004401C10FE439E
:102C50001CB004401410FE4314B004400418FE439A
:102C600004C004400010FE4300B004400008FE43CE
:102C700000A004400408FE4304A004400C08FE43E6
:102C80000CA004400808FE4308A004401418FE43AA
:102C900014C004401818FE4318C004400410FE433A
:102CA00004B004400810FE4308B004406820FE430E
:102CB00068D004401400FE43149004403800FE43E2
:102CC000389004403C00FE433C9004404000FE43EA
:102CD000409004404808FE4348A004404C08FE438E
:102CE0004CA004402808FE4328A004402C08FE43C2
:102CF0002CA004406020FE4360D004406420FE43CA
:102D000064D004402010FE4320B004402410FE4351
:102D100024B004402810FE4328B004402C10FE4389
:102D20002CB004404400FE43449004407000FE4335
:102D3000709004407400FE43749004406800FE43A9
:102D4000689004405008FE4350A004405808FE43D9
:102D500058A004405C08FE435CA004405408FE43B5
:102D600054A004402018FE4320C004402418FE4311
:102D700024C004401008FE4310A004401408FE4381
:102D800014A004403818FE4338C004403418FE43F1
:102D900034C004403018FE4330C004403C18FE43A9
:102DA0003CC004402C18FE432CC004402820FE43A5
:102DB00028D004402C20FE432CD004400020FE43A9
:102DC00000D004400420FE4304D004400820FE4309
:102DD00008D004400C20FE430CD004401020FE43D9
:102DE00010D004401420FE4314D004400000000022
:102DF000000000008D1F0000851F0000811F0000E3
:102E00007D1F0000791F0000751F0000711F00006A
:102E10006D1F000000151915000100005007FF1F6D
:102E200012000000000200007C07FF1F43000000AA
:102E300000030000D807FF1F000000000103090481
:102E40006407FF1F0000000002030904C007FF1F02
:102E50000000000003030904DC07FF1F000000005E
:102E6000000000000000000000000000F807FF1F45
:102E7000F8B500BFF8BC08BC9E4670479528000016
:082E8000350400000506000006
:042E8800F8B500BFDA
:102E8C005C12FF1F01000000FFFFFFFFF42D00008C
:102E9C0000000000E8030000000000000A0400002D
:102EAC001201100102000040C016830477020102D7
:102EBC000301000018035400650065006E007300E8
:102ECC0079006400750069006E006F000902430010
:102EDC00020100C0320904000001020201000524B5
:102EEC00001001052401010104240206052406003A
:102EFC00010705820310004009040100020A0000CA
:102F0C000007050302400000070584024000000092
:102F1C001603550053004200200053006500720058
:102F2C00690061006C000000040309040C0300003C
:102F3C000000000000000000000000000000000085
:102F4C00000000000000000000000000E40AFF1F69
:102F5C004C0BFF1FB40BFF1F000000000000000013
:102F6C000000000000000000000000000000000055
:102F7C000000000000000000000000000000000045
:102F8C000000000000000000000000000000000035
:102F9C000000000000000000000000000000000025
:102FAC000000000000000000000000000000000015
:102FBC000000000000000000000000000000000005
:102FCC0000000000000000000000000000000000F5
:102FDC0000000000000000000000000000000000E5
:102FEC0000000000000000000000000000000000D5
:102FFC0001000000000000000E33CDAB34126DE672
:10300C00ECDE05000B0000000000000000000000DA
:10301C0000000000000000000000000000000000A4
:10302C000000000000000000000000000000000094
:10303C000000000000000000000000000000000084
:10304C000000000000000000000000000000000074
:10337C00F807FF1F0000000000000000240CFF1FD6
:10338C00240CFF1F2C0CFF1F2C0CFF1F340CFF1FD9
:10339C00340CFF1F3C0CFF1F3C0CFF1F440CFF1F89
:1033AC00440CFF1F4C0CFF1F4C0CFF1F540CFF1F39
:1033BC00540CFF1F5C0CFF1F5C0CFF1F640CFF1FE9
:1033CC00640CFF1F6C0CFF1F6C0CFF1F740CFF1F99
:1033DC00740CFF1F7C0CFF1F7C0CFF1F840CFF1F49
:1033EC00840CFF1F8C0CFF1F8C0CFF1F940CFF1FF9
:1033FC00940CFF1F9C0CFF1F9C0CFF1FA40CFF1FA9
:10340C00A40CFF1FAC0CFF1FAC0CFF1FB40CFF1F58
:10341C00B40CFF1FBC0CFF1FBC0CFF1FC40CFF1F08
:10342C00C40CFF1FCC0CFF1FCC0CFF1FD40CFF1FB8
:10343C00D40CFF1FDC0CFF1FDC0CFF1FE40CFF1F68
:10344C00E40CFF1FEC0CFF1FEC0CFF1FF40CFF1F18
:10345C00F40CFF1FFC0CFF1FFC0CFF1F040DFF1FC7
:10346C00040DFF1F0C0DFF1F0C0DFF1F140DFF1F74
:10347C00140DFF1F1C0DFF1F1C0DFF1F240DFF1F24
:10348C00240DFF1F2C0DFF1F2C0DFF1F340DFF1FD4
:10349C00340DFF1F3C0DFF1F3C0DFF1F440DFF1F84
:1034AC00440DFF1F4C0DFF1F4C0DFF1F540DFF1F34
:1034BC00540DFF1F5C0DFF1F5C0DFF1F640DFF1FE4
:1034CC00640DFF1F6C0DFF1F6C0DFF1F740DFF1F94
:1034DC00740DFF1F7C0DFF1F7C0DFF1F840DFF1F44
:1034EC00840DFF1F8C0DFF1F8C0DFF1F940DFF1FF4
:1034FC00940DFF1F9C0DFF1F9C0DFF1FA40DFF1FA4
:10350C00A40DFF1FAC0DFF1FAC0DFF1FB40DFF1F53
:10351C00B40DFF1FBC0DFF1FBC0DFF1FC40DFF1F03
:10352C00C40DFF1FCC0DFF1FCC0DFF1FD40DFF1FB3
:10353C00D40DFF1FDC0DFF1FDC0DFF1FE40DFF1F63
:10354C00E40DFF1FEC0DFF1FEC0DFF1FF40DFF1F13
:10355C00F40DFF1FFC0DFF1FFC0DFF1F040EFF1FC2
:10356C00040EFF1F0C0EFF1F0C0EFF1F140EFF1F6F
:10357C00140EFF1F1C0EFF1F1C0EFF1F240EFF1F1F
:10358C00240EFF1F2C0EFF1F2C0EFF1F340EFF1FCF
:10359C00340EFF1F3C0EFF1F3C0EFF1F440EFF1F7F
:1035AC00440EFF1F4C0EFF1F4C0EFF1F540EFF1F2F
:1035BC00540EFF1F5C0EFF1F5C0EFF1F640EFF1FDF
:1035CC00640EFF1F6C0EFF1F6C0EFF1F740EFF1F8F
:1035DC00740EFF1F7C0EFF1F7C0EFF1F840EFF1F3F
:1035EC00840EFF1F8C0EFF1F8C0EFF1F940EFF1FEF
:1035FC00940EFF1F9C0EFF1F9C0EFF1FA40EFF1F9F
:10360C00A40EFF1FAC0EFF1FAC0EFF1FB40EFF1F4E
:10361C00B40EFF1FBC0EFF1FBC0EFF1FC40EFF1FFE
:10362C00C40EFF1FCC0EFF1FCC0EFF1FD40EFF1FAE
:10363C00D40EFF1FDC0EFF1FDC0EFF1FE40EFF1F5E
:10364C00E40EFF1FEC0EFF1FEC0EFF1FF40EFF1F0E
:10365C00F40EFF1FFC0EFF1FFC0EFF1F040FFF1FBD
:10366C00040FFF1F0C0FFF1F0C0FFF1F140FFF1F6A
:10367C00140FFF1F1C0FFF1F1C0FFF1F240FFF1F1A
:10368C00240FFF1F2C0FFF1F2C0FFF1F340FFF1FCA
:10369C00340FFF1F3C0FFF1F3C0FFF1F440FFF1F7A
:1036AC00440FFF1F4C0FFF1F4C0FFF1F540FFF1F2A
:1036BC00540FFF1F5C0FFF1F5C0FFF1F640FFF1FDA
:1036CC00640FFF1F6C0FFF1F6C0FFF1F740FFF1F8A
:1036DC00740FFF1F7C0FFF1F7C0FFF1F840FFF1F3A
:1036EC00840FFF1F8C0FFF1F8C0FFF1F940FFF1FEA
:1036FC00940FFF1F9C0FFF1F9C0FFF1FA40FFF1F9A
:10370C00A40FFF1FAC0FFF1FAC0FFF1FB40FFF1F49
:10371C00B40FFF1FBC0FFF1FBC0FFF1FC40FFF1FF9
:10372C00C40FFF1FCC0FFF1FCC0FFF1FD40FFF1FA9
:10373C00D40FFF1FDC0FFF1FDC0FFF1FE40FFF1F59
:10374C00E40FFF1FEC0FFF1FEC0FFF1FF40FFF1F09
:10375C00F40FFF1FFC0FFF1FFC0FFF1F0410FF1FB8
:10376C000410FF1F0C10FF1F0C10FF1F1410FF1F65
:10377C001410FF1F1C10FF1F1C10FF1F0000020065
:04378C00FFFFFFFF3D
:00000001FF
